:020000040800F2
:10000000500500204501000843160008211500088E
:10001000411600088D010008251B000800000000A3
:10002000000000000000000000000000671600084B
:10003000A502000800000000651600086916000807
:100040005F0100085F0100085F0100085F01000810
:100050005F0100085F0100085F0100085F01000800
:100060005F0100085F0100085F0100085F010008F0
:100070005F0100085F0100085F0100085F010008E0
:10008000DD0100085F0100085F0100085F01000852
:100090005F0100085F0100085F0100085F010008C0
:1000A0005F0100085F0100085F0100085F010008B0
:1000B0005F0100085F0100085F0100085F010008A0
:1000C0005F0100085F0100085F0100085F01000890
:1000D0005F0100085F010008D11A00085F010008F5
:1000E0005F0100085F0100085F0100085F01000870
:1000F0005F0100085F0100085F0100085F01000860
:100100005F0100085F0100085F0100085F0100084F
:10011000291700085F0100085F0100085F0100085F
:100120005F0100085F0100085F0100085F0100082F
:10013000DFF80CD000F018F8004800474D1B00080D
:10014000500500200648804706480047FEE7FEE7C6
:10015000FEE7FEE7FEE7FEE7FEE7FEE7FEE7FEE777
:10016000E116000831010008064C074D06E0E06882
:1001700040F0010394E8070098471034AC42F6D3EE
:10018000FFF7DAFF241C0008441C0008FEE700000B
:100190001048104A41781048927859B101290ED080
:1001A000022911D0032913D102B101225FF002010B
:1001B00000F029BC4FF4804103E00122F8E74FF43E
:1001C0000041002AF4D0F8E702B101220121EFE753
:1001D000704700001400002000140140014800F0A6
:1001E00069B90000FC00002030B590F840500124AF
:1001F000AC40C56B6C60046863604368102B036897
:1002000003D099600068C26030BD9A600068C16028
:1002100030BD000070B51C4A107800251B4C012829
:100220000AD100201A4902E02554401CC0B20B78C4
:100230009842F9D30D701570164814490278164883
:1002400001F0C2F8642000F0D3FA6078134E492818
:1002500006D0692804D04F2808D06F2806D00DE0BA
:10026000E0783038307000F01FF807E0E078303880
:10027000707060793038B070FFF78AFF08483570C9
:1002800005604560058170BD0100002098000020D8
:100290000000002002000020580000201400002070
:1002A00040010020704700003EB52348244C0178EF
:1002B0002248032913D0022924D001292DD0002956
:1002C00014D1011500F09AFB80B301280ED14834F7
:1002D000642394E807008DE807000A220DE04FF43C
:1002E000005100F08BFB10B10128F1D03EBD15A0EC
:1002F000642307C88DE8070009226946144801F005
:10030000B1F83EBD4FF4805100F078FB18B10128E0
:10031000F7D11834DCE70C34DAE74FF4006100F071
:100320006DFB20B10128ECD13034D1E701E0243459
:10033000CEE73C34CCE70000140000200018014058
:10034000D01B000844492D333A300D0A000000004C
:100350005800002001680A6822F00E020A60016855
:100360000A6822F001020A6090F84020C36B012164
:1003700001FA02F25A6080F82110002180F8201062
:10038000084670472DE9F05F90F8211000240229FB
:1003900003D004218163012485E001680A6822F00A
:1003A0000E020A6001680A6822F001020A603F4EEC
:1003B0003E4FB215DFF8F4C0DFF8F090DFF8ECA0A4
:1003C000DFF8E8B0DFF8E4E00168783F13011502D8
:1003D000ACF1640CA9F15009AAF13C0AABF1280B6D
:1003E000AEF1140E4FF48018B14227D9B9420ED0A5
:1003F000614512D049451DD0514518D0594518D0F6
:10040000714501D1424615E0294EB14201D1012288
:1004100010E0274E1436B14201D110220AE0244EDA
:100420002836B14206D0224A3C32914201D11A46C6
:1004300000E02A461E49091F0A602BE0B94213D08A
:10044000614517D0494522D051451DD059451DD091
:10045000714501D142461AE0B14202D14FF080729B
:1004600015E0134EB14201D1012210E0104E1436B6
:10047000B14201D110220AE00D4E2836B14206D019
:100480000B4A3C32914201D11A4600E02A46074904
:1004900080394A60012180F82110002180F8201065
:1004A000416B01B188472046BDE8F09F80000240C3
:1004B000080402402DE9F05FC16B0A6801680B680F
:1004C000046C4FF0040808FA04F8844D844E854FFC
:1004D000DFF814C2DFF81492DFF814A2DFF814B2C8
:1004E000DFF814E218EA020F65D05FEA437862D5BC
:1004F0000A68920603D40A6822F004020A60DFF850
:10050000F0814FF48062016808F1140813011402AD
:10051000414524D9A9420DD0B1420FD0B9421AD0D9
:10052000614515D0494515D0514501D1120312E05E
:10053000594501D104220EE0714501D140220AE063
:100540006D4D1435A94206D06B4A2832914201D133
:100550001A4600E022466749091F0A6029E0A942BD
:1005600013D0B14215D0B94220D061451BD04945C6
:100570001BD0514502D14FF4800217E0414502D112
:100580004FF0806212E0594501D104220EE071451E
:1005900001D140220AE0584D1435A94206D0564AEE
:1005A0002832914201D11A4600E022464B490839CF
:1005B0004A60C16A71E04FF0020808FA04F818EACC
:1005C000020F70D05FEA83786DD50A68920606D470
:1005D0000A6822F00A020A60012180F82110DFF87F
:1005E00010814FF40072016808F11408130114021D
:1005F000414524D9A9420DD0B1420FD0B9421AD0F9
:10060000614515D0494515D0514501D1120312E07D
:10061000594501D102220EE0714501D120220AE0A4
:10062000354D1435A94206D0334A2832914201D1C2
:100630001A4600E022462F49091F0A6029E0A94214
:1006400013D0B14215D0B94220D061451BD04945E5
:100650001BD0514502D14FF4001217E0414502D1A1
:100660004FF0007212E0594501D102220EE07145AF
:1006700001D120220AE0204D1435A94206D01E4A9D
:100680002832914201D11A4600E022461349083926
:100690004A60002180F82010816A00291CD0BDE842
:1006A000F05F0847FFE70825A540154214D01A0758
:1006B00012D50A6822F00E020A6090F84020C36B3F
:1006C000012101FA02F25A60816380F821100021B1
:1006D00080F82010016BE0E7BDE8F09F08000240C1
:1006E0001C0002403000024044000240580002401A
:1006F0006C000240080402401C04024030B560B1A6
:100700001C4A03681421934209D21B4A1A44B2FBC3
:10071000F1F18900016419490AE0012030BD154A50
:1007200052421A44B2FBF1F18900016411490839BF
:10073000C163022180F821101A6843F6F0718A43E0
:10074000F0E901142143D0E902452C432143046917
:1007500021434469214384692143114319600021E5
:1007600041628162C1620163416301224277017784
:10077000084630BD08040240F8FFFDBF00000240FB
:1007800070B5044690F82000002501280CD0012007
:1007900084F8200094F821600020012E06D084F80F
:1007A00020000225284670BD022070BD022684F874
:1007B0002160A0632068066826F0010606602046D6
:1007C000FFF712FDE06A00282068016802D041F0BE
:1007D0000E0106E021F0040101602068016841F08B
:1007E0000A0101602068016841F001010160D9E758
:1007F00070B5044600F00CF90546601C02D00448B0
:100800000078044400F004F9401BA042FAD370BD04
:10081000040000202DE9F84FDFF8B8A100220AF10A
:10082000040B144601274FF00F090BF1040E00BF13
:100830000B6807FA04F52B40AB4274D1DFF898C17E
:100840004E68A6EB0C0866452BD00DDC032E34D089
:1008500005DC36B3012E19D0022E2FD11BE0112E4C
:1008600016D0122E2AD119E0B8F5881F19D006DC4F
:10087000B8F5803F15D0B8F5801F1FD111E0B8F54D
:10088000001F0ED0B8F5041F18D10AE0CA6815E0A1
:10089000CA68121D12E0CA6808320FE0CA680C323A
:1008A0000CE08A682AB1012A4FF0080203D04561A2
:1008B00004E0042202E0056100E00022FF2B01D8E1
:1008C000064601E000F104064FEA840501D9A5F1CE
:1008D0002005D6F800C009FA05F82CEA080C02FA3F
:1008E00005F54CEA050CC6F800C04D68ED006AD568
:1008F0003A4DAE6946F00106AE61AD6924F00306DB
:1009000005F001050095364D06EB050CDCF80850A6
:10091000A6074FEA167809FA08F6B543314EB042F9
:1009200002D100261AE04EE02F4EB04201D101263E
:1009300014E02E4EB04201D102260FE02C4EB04200
:1009400001D103260AE02B4EB04201D1042605E076
:10095000294EB04201D1052600E0062606FA08F627
:100960002E43CCF808604D68DAF80060ED03554678
:1009700001D51E4300E09E432E604D68AD0305D5B2
:10098000DBF800601E43CBF8006004E0DBF80050A9
:100990009D43CBF800504D68DEF80060ED027546CF
:1009A00001D51E4300E09E432E604D68AD0205D583
:1009B000084D0C352E681E432E6004E0054E0C36A3
:1009C00035689D433560641C102CFFF431AFBDE8E1
:1009D000F88F0000000401400000111000100240D8
:1009E0000000014000080140000C014000100140DF
:1009F0000014014000180140001C014080680840BC
:100A000000D0012070470AB1016170470904FBE77B
:100A10000148806870470000040000200248816897
:100A2000027811448160704704000020074810B527
:100A3000016841F010010160032000F09DF80020E2
:100A400000F006F800F024F8002010BD002002405D
:100A500070B50D4D04464FF47A712878B1FBF0F073
:100A60000A490968B1FBF0F000F02DFB48B9102CE1
:100A700007D200222146501E00F05EF800206C6074
:100A800070BD012070BD0000040000201000002097
:100A9000214808B5816941F001018161816901F056
:100AA00001010091C16941F08051C161C06900F04C
:100AB00080500090062000F05FF8002211466FF091
:100AC0000B0000F039F8002211466FF00A0000F028
:100AD00033F8002211466FF0090000F02DF80022D3
:100AE0001146501F00F028F800221146101F00F098
:100AF00023F800221146901E00F01EF80022114635
:100B0000501E00F019F80548416821F0E06141F0FD
:100B10000071416008BD000000100240000001406B
:100B200000F01F02012191404009800000F1E02007
:100B3000C0F8001170470000F0B40E4B1B680C4663
:100B4000C3F30223C3F10705042D00D90425191DA1
:100B5000072901D2002300E0DB1E012606FA05F179
:100B6000491E214099409E40761E16403143F0BCFC
:100B700000F068BD0CED00E0064900F007020868CF
:100B80004FF6FF03184040EA0220034A1043086072
:100B9000704700000CED00E00000FA052DE9F04779
:100BA000DFF83C8105460E46D8F8000000F007004B
:100BB000B0420CD2D8F8001021F007013143C8F838
:100BC0000010D8F8000000F00700B04263D1287888
:100BD000444C800705D56068A96820F0F000084300
:100BE00060602878C00745D06868012816D0216861
:100BF000022816D0890700294DDA616821F0030127
:100C000001436160FFF704FF6968074641F28830DD
:100C100001290FD00229814619D027E021688903D4
:100C2000E9E78901E7E700BFFFF7F2FEC11B49458D
:100C300001D918E081466068C0F381000128F3D132
:100C400018E000BFFFF7E4FEC11B49450BD8606800
:100C5000C0F381000228F5D10CE000BFFFF7D8FEF9
:100C6000C11B494502D90320BDE8F087606810F038
:100C70000C0FF3D1D8F80010404601F00701B14243
:100C80000BD9016821F0070131430160006800F0D1
:100C90000700B04201D00120E6E72878400705D5DB
:100CA0006068E96820F4E060084360602878000725
:100CB00006D56068296920F4605040EAC100606090
:100CC00000F03CF86168084AC1F30311515CC84068
:100CD000064908600020FFF7BBFE0020C4E70000C3
:100CE0000020024000100240B81B00081000002045
:100CF00001480068704700001000002004480549C2
:100D000000684968044AC1F30221515CC840704739
:100D10001000002000100240C81B000804480549CC
:100D200000684968044AC1F3C221515CC840704759
:100D30001000002000100240C81B000812A185B05E
:100D40000FC98DE80F0014A0144A00680490516880
:100D5000134801F00C03042B10D0082B0ED1C1F363
:100D60008343C9031DF803000AD5516804AAC1F3DF
:100D70004041515C0A4A5043B0FBF1F005B0704766
:100D800008494843FAE7000002030405060708097A
:100D90000A0B0C0D0E0F1010010200000010024093
:100DA00000127A0000093D002DE9F84F0446007852
:100DB000B94DC00748D06868C0F38100012807D04A
:100DC0006868C0F38100022809D16868C00306D5AD
:100DD0002868800338D5606800286FD034E06068E8
:100DE000B0F5803F0BD010B1B0F5A02F11D028681E
:100DF00020F480302860286820F4802002E02868F1
:100E000040F480302860606888B1FFF701FE064634
:100E100009E0286840F480202860F0E7FFF7F8FD3B
:100E2000801B642875D828688003F7D50CE0FFF78D
:100E3000EFFD064605E000BFFFF7EAFD801B6428D2
:100E4000F0D828688003F7D42078944E80074FF0BC
:100E500001094FF000083BD5686810F00C0F07D06F
:100E60006868C0F38100022809D16868C00306D40D
:100E70002868800714D5206901281FD110E0206957
:100E8000B0B1C6F80090FFF7C3FD074605E000BF0C
:100E9000FFF7BEFDC01B0228C4D828688007F7D51D
:100EA0002868616920F0F80040EAC10028600FE07E
:100EB000C6F80080FFF7ACFD074606E0E9E000BF9A
:100EC000FFF7A6FDC01B022823D828688007F7D4A7
:100ED000207800072CD57248A169D9B1C0F80090DC
:100EE000FFF796FD074604E0FFF792FDC01B0228BE
:100EF0000FD8686A8007F7D56A484FF4FA5100683E
:100F0000B0FBF1F0009000BF0098411E0091FAD2B2
:100F10000EE080E0C0F80080FFF77AFD074604E0AD
:100F2000FFF776FDC01B022875D8686A8007F7D4E2
:100F30002078400760D5E8690027C00008D4E86938
:100F400040F08050E861E869012700F0805000908F
:100F500055480168C90513D40168834641F480717E
:100F60000160FFF755FD824606E000BFFFF750FD28
:100F7000A0EB0A0064284ED8DBF80000C005F5D5C8
:100F8000E06801280AD008B1052813D0286A20F0AB
:100F900001002862286A20F0040002E0286A40F07C
:100FA00001002862E06841F2883B98B1FFF730FD0C
:100FB00082460BE0286A40F004002862EEE700BF9A
:100FC000FFF726FDA0EB0A0159455AD8286A800789
:100FD000F6D50CE0FFF71CFD824605E0FFF718FD93
:100FE000A0EB0A0159454CD8286A8007F6D41FB1F6
:100FF000E86920F08050E861E06988B36968C1F36E
:101000008101022945D00228C6F8608004D0FFF78C
:10101000FFFC044638E034E0FFF7FAFC074604E042
:10102000FFF7F6FCC01B02282BD828688001F7D4F4
:10103000206AB0F5803F05D16868A16820F40030CF
:1010400008436860D4E908010843696821F4741111
:1010500008436860C6F86090FFF7DAFC044606E0D3
:1010600015E000BFFFF7D4FC001B022809D8286850
:101070008001F7D50BE000BFFFF7CAFC001B022878
:1010800002D90320BDE8F88F28688001F4D400203D
:10109000F8E70120F6E7000000100240000042429D
:1010A0008004424210000020007000404FF0E02118
:1010B0000428086903D020F004000861704740F05C
:1010C0000400FAE7704710B5401EB0F1807F01D3ED
:1010D000012010BD4FF0E02460610F21601700F087
:1010E000B1FA0020A06107202061002010BD10B5DA
:1010F000FFF7E8FF10BD10B504460068416994F899
:101100003920C1F3C011212A0BD151B1416921F01D
:1011100080014161206B08B1FFF71CF9204600F007
:1011200067FB2068416994F83A20C1F38011222AB4
:101130000BD151B1416921F040014161606B08B1AF
:10114000FFF708F9204600F045FB002010BD70476E
:1011500070B5026804461068D168536910F00F0F2B
:1011600050D003F0010501F4907635435DD0C207FD
:1011700005D0CA0503D5E26B42F00102E2634207E3
:1011800005D5DA0703D0E26B42F00202E263820780
:1011900005D5DA0703D0E26B42F00402E2630207EE
:1011A00005D5DA0703D0E26B42F00802E263E26B96
:1011B000002A33D0800604D5880602D5204600F0E8
:1011C00020FB20684069E16BC0F38010090700D460
:1011D00028B3204600F0FEFA2068416949061AD576
:1011E000416921F040014161606BA0B11B4941633D
:1011F000606BFFF7C7F8002810D0606B416BBDE84B
:1012000070400847830610D58B060ED52046BDE8F2
:10121000704000F0F6BA2046FFF799FF70BD2046F7
:10122000FFF795FF0020E06370BD030606D50B06AF
:1012300004D52046BDE8704000F0E6BB4006F3D57B
:101240004806F1D5D168204621F04001D160202127
:1012500084F8391000F063F970BD000035170008FC
:1012600070B5040004D094F83900002510B106E0F0
:10127000012070BD84F83850204600F023F8242067
:1012800084F839002068C16821F40051C16020460B
:1012900000F002FB2068016921F49041016120689F
:1012A000416921F02A0141612068C16841F400517F
:1012B000C160E563202084F8390084F83A000020FA
:1012C00070BD000070B50646314D036800243149F9
:1012D0000220032286B0AB421FD1CB6943F4002326
:1012E000CB61C9692C4D01F4002104914102CDE983
:1012F0000010039269462846FFF78CFAE814CDE9FE
:101300000004694628460294FFF784FA002201216E
:101310003420FFF711FC342036E0204DAB4235D1AC
:10132000CB6943F40033CB61C9691D4D01F4003131
:1013300004910421CDE90010039269462846FFF785
:1013400069FA0820CDE90004694628460294FFF7AF
:1013500061FA154D1348C5E900048020C5E9024033
:101360002C616C61AC612846EC61FFF7C7F918B1DC
:101370009A210EA000F0D7FB7563002211462620AB
:101380006E62FFF7D9FB2620FFF7CAFB06B070BDDF
:10139000004C00400010024000100140004400409A
:1013A000000801406C000240FC0000202E2E2F534C
:1013B00072632F73746D3332663178785F68616C55
:1013C0005F6D73702E630000F8B5044690F83A0024
:1013D00020283CD1C1B3BAB394F83800012836D0E4
:1013E000012084F83800A162A2850025E56322204F
:1013F00084F83A00636B17489862636B1648D862AA
:10140000636B16481863606B134645630846666B4A
:10141000216802463046091DFFF7B2F920680168CD
:101420004168009184F83850C16841F48071C1600E
:101430002068416941F0010141612068416941F042
:10144000400141610020F8BDFFE70120FBE70220D9
:10145000F9E700008F170008CB17000845170008B0
:10146000704770472DE9F843044690F839001F464D
:1014700016460D46202850D1A5B19EB194F83800EB
:1014800001284AD0012084F838004FF00008C4F841
:101490003C80212084F83900FFF7BAFAA6848146FF
:1014A000E68426E00120BDE8F883E08C401EE0845D
:1014B000A0684B46B0F5805F4FF000024FF080010E
:1014C0002046009703D000F0D0FAE8B90DE000F014
:1014D000CCFAC8B928882168C0F3080048602069A0
:1014E00008B16D1C05E0AD1C03E0216815F8010B87
:1014F0004860E08C0028D8D14B460022402120468D
:10150000009700F0B2FA08B10320CCE7202084F85D
:10151000390084F838800020C5E70220C3E770470F
:10152000FEE700002DE9F0432D4885B0816941F0C8
:1015300080018161816901F080010491816941F03C
:1015400004018161816901F004010491816941F024
:1015500040018161816901F040010491816941F09C
:1015600020018161816901F020010491816941F0CC
:10157000100181618069DFF86C8000F010004FF489
:1015800070740490012221464046FFF73CFADFF8D0
:1015900058904CF20307002239464846FFF733FAC9
:1015A0000125CDE9004500240226CDE90246694621
:1015B0004046FFF72FF94FF47050CDE9000469461B
:1015C0000A480294FFF726F900970396CDE90154E3
:1015D00069464846FFF71EF905B0BDE8F0830000F4
:1015E00000100240001C014000140140001801409E
:1015F00010B5114C0F480C2120604FF4E1306060B1
:101600000020A060E060C4E90401A061E061204620
:10161000FFF726FE00B1FEE72068C16841F0100127
:10162000C160064804490278BDE8104040310248D4
:10163000FFF7CABE0044004058000020020000200E
:10164000FEE770470907090E002806DA00F00F00D0
:1016500000F1E02080F8141D704700F1E02080F8D0
:10166000001470477047704710B5FFF7D7F9BDE811
:101670001040FFF73CBD30B58FB001210804CDE923
:1016800000100024029402250491CDE907504FF484
:10169000E01009906846FFF787FB00B1FEE70F20D6
:1016A000CDE90A054FF48060CDE90C4002210AA87B
:1016B0000E94FFF773FA00B1FEE7FFF719FB4FF442
:1016C0007A71B0FBF1F0FFF7FEFC0420FFF7EEFCAF
:1016D00000221146501EFFF72FFA0FB030BD000058
:1016E0000D48016841F00101016041680B4A114059
:1016F000416001680A4A11400160016821F48021BB
:101700000160416821F4FE0141604FF41F018160D6
:101710000449C00308607047001002400000FFF851
:10172000FFFFF6FE08ED00E00148FFF711BD0000E5
:101730001800002010B5406A0021C185C184FFF760
:1017400006FD10BD70B5446A2068406994F83910F0
:10175000C0F3C0100025212904D118B1E58420462A
:1017600000F046F82068406994F83A10C0F3801001
:10177000222904D118B1E585204600F02BF8E06B52
:1017800040F01000E0632046FFF7E1FC70BD10B5AB
:101790000146406A09680968890613D40021C18599
:1017A0000168CA6822F48072CA6001684A6922F03E
:1017B00001024A6101684A6922F040024A6120211F
:1017C00080F83A10FFF74CFE10BD10B5406AFFF7E5
:1017D00048FE10BD0168CA6822F49072CA600168B0
:1017E0004A6922F001024A61202180F83A107047CC
:1017F0000168CA6822F0C002CA60202180F839104E
:10180000704710B590F83A10222901D0022010BD7F
:101810008168B1F5805F11D00169002901681FD08E
:10182000496801F07F03816A4A1C82620B70C18D96
:10183000491E0904090CC18518D02BE00269816A90
:10184000002A0268526805D0D2B20A80816A491C17
:101850008162ECE7C2F308020A80816A891CF7E71B
:101860004A68816A4B1C83620A70E0E70168CA68B3
:1018700022F02002CA600168CA6822F48072CA603D
:1018800001684A6922F001024A61202180F83A1079
:10189000FFF7E6FD002010BD2DE9F0410446006889
:1018A0000169E26821F44051114301612169A06896
:1018B0000843616908432168CA6841F20C639A438E
:1018C0000243CA6020684169A26921F44071114352
:1018D00041614C4920686425322688423CD1FFF79B
:1018E0001DFA00EBC00101EB001061688900B0FB3C
:1018F000F1F7FFF713FA00EBC00101EB001061688C
:10190000B0468900B0FBF1F0B0FBF5F06FF01801C4
:10191000484307EB800106EB0110B0FBF5F000F047
:10192000F006FFF7FBF900EBC00101EB0010616866
:101930008900B0FBF1F0B0FBF5F006EB0016FFF705
:10194000EDF900EBC00101EB001061688900B0FB0C
:10195000F1F7FFF7E3F93BE0FFF7D0F900EBC00147
:1019600001EB001061688900B0FBF1F7FFF7C6F9E1
:1019700000EBC00101EB00106168B0468900B0FBCC
:10198000F1F0B0FBF5F06FF01801484307EB800170
:1019900006EB0110B0FBF5F000F0F006FFF7AEF932
:1019A00000EBC00101EB001061688900B0FBF1F0B1
:1019B000B0FBF5F006EB0016FFF7A0F900EBC00155
:1019C00001EB001061688900B0FBF1F7FFF796F9B1
:1019D00000EBC00101EB001061688900B0FBF1F081
:1019E000B0FBF5F06FF01801484307EB800108EBFE
:1019F0000110B0FBF5F0216800F00F003044886062
:101A0000BDE8F0810038014090F83910212901D05B
:101A1000022070478168B1F5805F016A0BD04A1CD3
:101A20000262026809785160C18C491E0904090CE0
:101A3000C1840ED017E009880268C1F30801516023
:101A400001690029016A02D0491C0162ECE7891C86
:101A5000FBE70168CA6822F08002CA600068C168BA
:101A600041F04001C160002070472DE9F0419846E7
:101A700017460E460446069D1DE0681C1BD02DB17E
:101A8000FEF7C6FFA0EB0800A84214D92068C16881
:101A900021F4D071C1602068416921F001014161E8
:101AA000202084F8390084F83A00002084F83800B7
:101AB0000320BDE8F0812068006836EA000004D009
:101AC0000020B842D9D00020F3E70120F9E7000058
:101AD0000F4808B500680168C1F3001191B10168B1
:101AE00041680091016840680948FFF704FB094814
:101AF0000068406808490978081A084908700849C8
:101B000001200870BDE808400148FFF721BB000034
:101B100058000020FC0000200200002000000020EF
:101B200001000020FEE7FEE702E008C8121F08C11E
:101B3000002AFAD170477047002001E001C1121F4E
:101B4000002AFBD17047FEF765BB000008B5FEF721
:101B50006DFFFFF790FDFFF7E5FC1448416941F088
:101B6000010141614069002200F00100009011462E
:101B70001020FEF7E1FF1020FEF7D2FFFFF738FD3F
:101B80000C480B490C2201604FF4E1314160002107
:101B90008160C160C0E904128161C161FFF760FB2F
:101BA00000B1FEE7FFF7CFFFFCE7000000100240A6
:101BB000004C004018000020000000000000000061
:101BC00001020304060708090000000001020304E3
:101BD00044492D333A310D0A0000000044492D32AA
:101BE0003A300D0A0000000044492D323A310D0A06
:101BF0000000000044492D313A300D0A0000000079
:101C000044492D313A310D0A0000000044492D307D
:101C10003A300D0A0000000044492D303A310D0AD7
:101C200000000000441C0008000000201800000014
:101C3000281B00085C1C0008180000203805000064
:101C4000381B0008000064000100000010000000C4
:0C1C50000000000000A24A040000000098
:0400000508000131BD
:00000001FF
